:020000040800F2
:1000000070180020990100087F1A0008F3170008F3
:100010007D1A00083D030008ED1E000800000000E6
:1000200000000000000000000000000001010008C6
:100030003F0300080000000045010008B91B00084C
:10004000B3010008B3010008B3010008B3010008C0
:10005000B3010008B3010008B3010008B3010008B0
:10006000B3010008B3010008B3010008B3010008A0
:10007000B3010008B3010008B3010008B301000890
:10008000B3010008B3010008B3010008B301000880
:10009000B3010008B3010008B3010008B301000870
:1000A000B3010008A11C0008B3010008B301000857
:1000B000B3010008B3010008B3010008B301000850
:1000C000B3010008B3010008B3010008B301000840
:1000D000B3010008B3010008B3010008B301000830
:1000E000B3010008B3010008B3010008DFF80CD029
:1000F00000F088F8004800477D25000870180020AF
:10010000224B19680868B0E8F00F80F30988BFF344
:100110006F8F4FF0000080F311884EF00D0E704786
:100120000000000006480068006880F3088862B696
:1001300061B6BFF34F8FBFF36F8F00DF00BF00BF0B
:1001400008ED00E0EFF30980BFF36F8F0F4B1A68E3
:1001500020E9F00F106008B54FF0500080F31188CF
:10016000BFF34F8FBFF36F8F02F01AFE4FF0000006
:1001700080F31188BDE8084019680868B0E8F00FFE
:1001800080F30988BFF36F8F704700BF2C000020F9
:10019000EFF3058070470000064880470648004797
:1001A000FEE7FEE7FEE7FEE7FEE7FEE7FEE7FEE727
:1001B000FEE7FEE7591C0008ED00000840EA0103D5
:1001C0009B0703D009E008C9121F08C0042AFAD20D
:1001D00003E011F8013B00F8013B521EF9D27047D1
:1001E000D2B201E000F8012B491EFBD27047002279
:1001F000F6E710B513460A4604461946FFF7F0FF26
:10020000204610BD064C074D06E0E06840F00103B3
:1002100094E8070098471034AC42F6D3FFF76AFF22
:10022000603200088032000870B58C1810F8015B4D
:1002300015F0070301D110F8013B2A1106D110F87F
:10024000012B03E010F8016B01F8016B5B1EF9D183
:100250002B0705D40023521E0DD401F8013BFAE709
:1002600010F8013BCB1A921C03E013F8015B01F874
:10027000015B521EF9D5A142D8D3002070BD000009
:1002800070B5044600688168C943C9071CD18168FC
:1002900021F00101816000F09DFB05460FE000BFE9
:1002A00000F098FB401B022809D9A06A40F010001A
:1002B000A062E06A40F00100E062012070BD2068A9
:1002C0008068C043C007EBD0002070BDF8B50026A1
:1002D0000446009600688168C943C90728D0816830
:1002E00041F001018160134813490068B0FBF1F04F
:1002F00000E0401E00900028FBD100F06BFB05469B
:1003000011E000BF00F066FB401B02280BD9A06A79
:1003100040F01000A062E06A40F00100E06284F862
:1003200024600120F8BD20688068C043C007E9D17F
:100330000020F8BD8000002040420F00FEE770471B
:10034000FEE70000F8B50024009490F8242025462C
:10035000012A12D0012280F824204A681F23072A8C
:100360000DD20668776B521E02EB820293409F43C8
:100370000B6893401F43776319E00220F8BD0668BD
:100380000D2A0AD2376BD21F02EB820293409F43A1
:100390000B6893401F43376309E0F76A0D3A02EB9D
:1003A000820293409F430B6893401F43F7620A68A1
:1003B000072306680A2A0AD3F7680A3A02EB4202C0
:1003C00093409F438B6893401F43F76008E0376971
:1003D00002EB420293409F438B6893401F43376177
:1003E0000A68102A01D0112A20D1124B02689A42C1
:1003F00017D193681B0219D4936843F400039360E8
:100400000968102912D10C490C4A0968B1FBF2F1B4
:1004100001EB8101490000E0491E00910029FBD158
:1004200004E0816A41F020018162012480F82450B7
:100430002046F8BD002401408000002040420F000B
:100440000068C06C704700002DE9F0414FF00007D4
:1004500004003D467ED0A06A002628B9E66284F8F2
:100460002460204600F07EF82046FFF709FFA16ACD
:10047000C90600D420B1A06A40F01000A06269E073
:10048000A16A21F4885141F00201A1626268E16928
:10049000E3680A4347EA43010A43A1684FF48077BF
:1004A000B94209D0012907D05FF00001D4F814C087
:1004B000BCF1010F02D00AE03946F7E7F3B1A36AB5
:1004C00043F02003A362E36A43F00103E36223687D
:1004D000D3F804C02CF4694C4CEA010CC3F804C0F6
:1004E00021688B68DFF870C003EA0C0313438B604C
:1004F000A168B9420BD0012909D00CE0DFF85CC03B
:10050000A3690CEB43330B4343F40061DFE7218A1B
:100510000D05A5F580152168CB6A23F470032B43E4
:10052000CB62216889680E4B1940914208D1E6627E
:10053000A16A21F0020141F00101A162BDE8F08150
:10054000A06A20F0020040F01000A062E06A40F0D3
:100550000100E0620120F1E7FDF7E1FF00E0FFFFAD
:10056000FE0E1FFF00B585B00021009101910291A0
:10057000039100680E49884218D10E48816941F400
:1005800000718161816901F400710491816941F018
:10059000040181618069694600F004000490022032
:1005A000009003200190044800F02CF905B000BD34
:1005B0000024014000100240000801402DE9F843EA
:1005C00000260D460446009600F004FA8046206896
:1005D0008168C90508D5A06A40F02000A06284F8AF
:1005E00024600120BDE8F8834168C90503D4C06ACE
:1005F00010F4700F26D0022000F0A8FA38490968DC
:10060000B1FBF0F72068036936490B424FEA6101FC
:100610004FEAA1121BD1C3684FEA611C13EA0C0F09
:1006200015D103690B4221D1C06810421ED114209C
:100630001FE0681C06D045B300F0CCF9A0EB080021
:10064000A84222D8206800688007F2D52AE0036912
:100650000B4202D1C168114206D0026922490A4206
:1006600006D1C068084203D1542002E0292000E0EE
:10067000FC204743009813E0681C0ED02DB100F019
:10068000A9F9A0EB0800A84207D9A06A40F004002D
:10069000A06284F824600320A4E70098401C009026
:1006A000B842E9D321686FF012000860A06A40F4F4
:1006B0000070A06220688068C0F3424007280CD117
:1006C000E06850B9A06A20F48070A062A06AC004FB
:1006D00003D4A06A40F00100A062002082E700007D
:1006E00080000020244992244992240070B50446D9
:1006F00090F8240001280DD0012084F82400204621
:10070000FFF7E4FD02004FF0000005D084F824005C
:10071000104670BD022070BDA16A40F201239943CA
:1007200041F48071A1621F4D23681F49AB4218D16B
:100730000E6816F4702F14D0A66A46F48016A662CE
:100740000E68760505D5A66A26F4005646F480564E
:10075000A662A66AF6040AD5E66A26F00606E662EE
:1007600006E0A66A26F48016A6625E68E9E7E06203
:1007700084F824006FF00200186020688368C3F3D7
:100780004243072B05D1A84208D1096811F4702F04
:1007900004D0816841F480118160B9E7816841F437
:1007A000A001F9E7002801400424014010B50446E7
:1007B00090F82400012807D0012084F82400204666
:1007C000FFF75EFD10B107E0022010BDA16A21F421
:1007D000885141F00101A162002184F8241010BD6C
:1007E00070B5044600F0F6F80546601C02D00448D7
:1007F0000078044400F0EEF8401BA042FAD370BD2C
:10080000000000202DE9F84FDFF890A100220AF146
:10081000040B144601274FF00F090BF1040E00BF23
:100820000B6807FA04F52B40AB4274D1DFF870C1B6
:100830004E68A6EB0C0866452BD00DDC032E34D099
:1008400005DC36B3012E19D0022E2FD11BE0112E5C
:1008500016D0122E2AD119E0B8F5881F19D006DC5F
:10086000B8F5803F15D0B8F5801F1FD111E0B8F55D
:10087000001F0ED0B8F5041F18D10AE0CA6815E0B1
:10088000CA68121D12E0CA6808320FE0CA680C324A
:100890000CE08A682AB1012A4FF0080203D04561B2
:1008A00004E0042202E0056100E00022FF2B01D8F1
:1008B000064601E000F104064FEA840501D9A5F1DE
:1008C0002005D6F800C009FA05F82CEA080C02FA4F
:1008D00005F54CEA050CC6F800C04D68ED0057D58B
:1008E000304DAE6946F00106AE61AD6924F00306F5
:1008F00005F0010500952C4D06EB050CDCF80850C1
:10090000A6074FEA167809FA08F6B543274EB04213
:1009100002D1002610E03BE0254EB04201D1012675
:100920000AE0244EB04201D1022605E0224EB04238
:1009300001D1032600E0042606FA08F62E43CCF87F
:1009400008604D68DAF80060ED03554601D51E4396
:1009500000E09E432E604D68DBF80060AD035D460D
:1009600001D51E4300E09E432E604D68DEF8006016
:10097000ED02754601D51E4300E09E432E604D6892
:10098000AD020E4D2E6801D51E4300E09E432E6041
:10099000641C102CFFF444AFBDE8F88F0004014044
:1009A000000011100010024000000140000801404A
:1009B000000C014000100140001401400C040140F3
:1009C0008068084000D0012070470AB1016170477B
:1009D0000904FBE701488068704700000000002020
:1009E000024881680278114481607047000000204D
:1009F000074810B5016841F010010160032000F0C4
:100A000093F8002000F006F800F03EF8002010BD3A
:100A10000020024000B5014687B00022192000F0F6
:100A200063F8192000F054F81348816941F400611B
:100A30008161806905A900F400600690684600F0B5
:100A400009FA00F037FA0D490D4AB0FBF1F10D48F3
:100A5000491E0260416040F2E7320021C0E90321F3
:100A6000816000F017FD10B1012007B000BD0548FE
:100A700000F02CFDF9E700000010024040420F009A
:100A8000002C0140740200200F4808B5816941F034
:100A900001018161816901F001010091C16941F0A9
:100AA0008051C161C069002200F0805000900F2188
:100AB000901E00F019F80548416821F0E06141F00E
:100AC0008061416008BD000000100240000001404C
:100AD00000F01F02012191404009800000F1E02058
:100AE000C0F8001170470000F0B40E4B1B680C46B4
:100AF000C3F30223C3F10705042D00D90425191DF2
:100B0000072901D2002300E0DB1E012606FA05F1C9
:100B1000491E214099409E40761E16403143F0BC4C
:100B200000F0AEBF0CED00E0064900F007020868D7
:100B30004FF6FF03184040EA0220034A10430860C2
:100B4000704700000CED00E00000FA0510B529A484
:100B500001461DCC86B08DE81D002AA02A4C0068F5
:100B600004900020012923D002293AD010291DD158
:100B700061682268D20119D5C1F38342C9031DF807
:100B8000020009D5616804AAC1F34041515C1F4AC3
:100B9000B2FBF1F1484301E01D4948436168490255
:100BA00004D440005FF00301B0FBF1F006B010BDCB
:100BB000226AC2F30121012903D1920701D5C8039A
:100BC000F4E7022905D1626A920702D549F640404E
:100BD000ECE70329EAD121688903E7D54FF22440E5
:100BE000E4E700F067F96168C1F38131491C49000D
:100BF000DAE7000002030405060708090A0B0C0DDA
:100C00000E0F1010010200000010024000127A00C6
:100C100000093D002DE9F84305460078354CC00732
:100C200054D0E0690026C00008D4E06940F080504C
:100C3000E061E069012600F0805000902E480168D4
:100C4000C90512D40168804641F480710160FFF744
:100C5000C1FE074605E000BFFFF7BCFEC01B6428CD
:100C600023D8D8F80000C005F6D5206A10F44070EB
:100C700021D0A98801F4407181421CD0206A1F490B
:100C8000012220F440700A6000220A602062C0073E
:100C900011D0FFF79FFE074641F2883808E000BFF9
:100CA000FFF798FEC11B414502D90320BDE8F88338
:100CB000206A8007F4D5206A696820F440700843F0
:100CC00020621EB1E06920F08050E0612878800742
:100CD00005D56068A96820F4404008436060287822
:100CE000C00605D56068E96820F4800008436060AC
:100CF0000020DBE700100240007000404004424248
:100D00002DE9F047DFF83C8105460E46D8F8000093
:100D100000F00700B0420CD2D8F8001021F0070113
:100D20003143C8F80010D8F8000000F00700B042C6
:100D300063D12878444C800705D56068A96820F005
:100D4000F000084360602878C00745D06868012833
:100D500016D02168022816D0890700294DDA61686B
:100D600021F0030101436160FFF734FE6968074623
:100D700041F2883001290FD00229814619D027E09D
:100D800021688903E9E78901E7E700BFFFF722FE51
:100D9000C11B494501D918E081466068C0F3810054
:100DA0000128F3D118E000BFFFF714FEC11B49452D
:100DB0000BD86068C0F381000228F5D10CE000BFB9
:100DC000FFF708FEC11B494502D90320BDE8F087A3
:100DD000606810F00C0FF3D1D8F80010404601F015
:100DE0000701B1420BD9016821F0070131430160CD
:100DF000006800F00700B04201D00120E6E7287843
:100E0000400705D56068E96820F4E0600843606049
:100E10002878000706D56068296920F4605040EA08
:100E2000C100606000F056F86168084AC1F3031120
:100E3000515CC840064908600020FFF7EBFD002028
:100E4000C4E700000020024000100240E831000822
:100E5000800000200F2202600C4A536803F0030355
:100E60004360536803F0F0038360536803F4E06366
:100E7000C36052684FF4E06303EAD202026104489F
:100E8000006800F007000860704700000010024092
:100E9000002002400448054900684968044AC1F33B
:100EA0000221515CC84070478000002000100240C1
:100EB000F83100080448054900684968044AC1F34C
:100EC000C221515CC84070478000002000100240E1
:100ED000F831000812A185B00FC98DE80F0014A0E9
:100EE000144A006804905168134801F00C03042B65
:100EF00010D0082B0ED1C1F38343C9031DF80300A2
:100F00000AD5516804AAC1F34041515C0A4A5043D2
:100F1000B0FBF1F005B0704708494843FAE700001C
:100F200002030405060708090A0B0C0D0E0F10102A
:100F3000010200000010024000127A0000093D008A
:100F40002DE9F84F04460078B94DC00748D06868CD
:100F5000C0F38100012807D06868C0F3810002282F
:100F600009D16868C00306D52868800338D5606851
:100F700000286FD034E06068B0F5803F0BD010B12E
:100F8000B0F5A02F11D0286820F4803028602868A0
:100F900020F4802002E0286840F4803028606068F7
:100FA00088B1FFF717FD064609E0286840F4802065
:100FB0002860F0E7FFF70EFD801B642875D82868CD
:100FC0008003F7D50CE0FFF705FD064605E000BFFE
:100FD000FFF700FD801B6428F0D828688003F7D451
:100FE0002078944E80074FF001094FF000083BD560
:100FF000686810F00C0F07D06868C0F38100022801
:1010000009D16868C00306D42868800714D5206910
:1010100001281FD110E02069B0B1C6F80090FFF799
:10102000D9FC074605E000BFFFF7D4FCC01B02282F
:10103000C4D828688007F7D52868616920F0F800CF
:1010400040EAC10028600FE0C6F80080FFF7C2FC4C
:10105000074606E0E9E000BFFFF7BCFCC01B022822
:1010600023D828688007F7D4207800072CD5724849
:10107000A169D9B1C0F80090FFF7ACFC074604E0C5
:10108000FFF7A8FCC01B02280FD8686A8007F7D5B5
:101090006A484FF4FA510068B0FBF1F0009000BFCD
:1010A0000098411E0091FAD20EE080E0C0F8008066
:1010B000FFF790FC074604E0FFF78CFCC01B0228FA
:1010C00075D8686A8007F7D42078400760D5E8694A
:1010D0000027C00008D4E86940F08050E861E86962
:1010E000012700F08050009055480168C90513D4CD
:1010F0000168834641F480710160FFF76BFC824612
:1011000006E000BFFFF766FCA0EB0A0064284ED89B
:10111000DBF80000C005F5D5E06801280AD008B169
:10112000052813D0286A20F001002862286A20F0E0
:10113000040002E0286A40F001002862E06841F201
:10114000883B98B1FFF746FC82460BE0286A40F0E6
:1011500004002862EEE700BFFFF73CFCA0EB0A01A9
:1011600059455AD8286A8007F6D50CE0FFF732FCBB
:10117000824605E0FFF72EFCA0EB0A0159454CD84A
:10118000286A8007F6D41FB1E86920F08050E86132
:10119000E06988B36968C1F38101022945D002285A
:1011A000C6F8608004D0FFF715FC044638E034E050
:1011B000FFF710FC074604E0FFF70CFCC01B0228F9
:1011C0002BD828688001F7D4206AB0F5803F05D17C
:1011D0006868A16820F4003008436860D4E9080119
:1011E0000843696821F4741108436860C6F8609088
:1011F000FFF7F0FB044606E015E000BFFFF7EAFB4F
:10120000001B022809D828688001F7D50BE000BF31
:10121000FFF7E0FB001B022802D90320BDE8F88F8E
:1012200028688001F4D40020F8E70120F6E70000E8
:101230000010024000004242800442428000002030
:101240000070004070B5040005D00025A56294F838
:10125000510010B104E0012070BD204600F034F8C8
:10126000022084F851002068016821F040010160EB
:10127000D4E901010843D4E9031211430843616929
:101280000843218B01F400710843E1690843216A96
:101290000843A16A084321680860A069042101EAA3
:1012A0001040616A0843216848602168E06A08616B
:1012B0002068C16921F40061C1616565012084F87D
:1012C0005100002070BD000000B585B000210091E4
:1012D0000191029103910068104988421BD1104886
:1012E000C16941F48041C161C16901F48041049147
:1012F000816941F0080181618069694600F0080058
:1013000004904FF4204000900220019001200390AF
:101310000448FFF777FA05B000BD00000038004030
:1013200000100240000C01402DE9F84F044690F8EF
:1013300050000026994617460D4601280DD04FF063
:10134000010B84F850B0FFF745FB804694F851003C
:10135000B246012804D0022694E00220BDE8F88FAE
:10136000002D7BD0002F79D0032084F85100C4F8E1
:1013700054A02563A786E786C4F838A0A4F83CA04B
:10138000A4F83EA0C4F844A0C4F840A0A068B0F5FA
:10139000004F04D12068016841F480410160206859
:1013A0000168490603D4016841F040010160E0682A
:1013B000B0F5006F606804D030B3E08E012823D010
:1013C0003EE010B1E08E01281AD135F8021B2068EA
:1013D00005E020688168890706D535F8021BC160E1
:1013E000E08E401EE0860BE0B9F1000F34D0B9F179
:1013F000FF3F05D0FFF7EEFAA0EB080149452BD2DD
:10140000E08E0028E5D11EE0216815F8010B087375
:1014100006E020688168890706D515F8011B01736D
:10142000E08E401EE0860BE0B9F1000F14D0B9F158
:10143000FF3F05D0FFF7CEFAA0EB080149450BD2DC
:10144000E08E0028E5D14B46012202212046CDF84E
:10145000008000F065FB10B1032613E011E0424666
:101460004946204600F04CFB18B10126202060655B
:1014700008E0A06818B92068C16880680090606DB5
:1014800000B1012684F851B084F850A0304665E7D9
:101490007047704710B5040003D094F83D0010B1B8
:1014A00007E0012010BD002084F83C00204600F039
:1014B0000CF8022084F83D00211D206800F0F6FBA6
:1014C000012084F83D00002010BD70470168CA6803
:1014D00042F00102CA600068016841F00101016048
:1014E00000207047704770B50446006801694FF0EE
:1014F0000005C943890715D4C168C943890711D4B8
:10150000E91E01610120207720688069800720465C
:1015100002D0FFF7E7FF04E000F098F8204600F063
:1015200096F8257720680169C943490717D4C1682F
:10153000C943490713D46FF00401016102202077E9
:101540002068806910F4407F204602D0FFF7CAFF70
:1015500004E000F07BF8204600F079F82577206859
:101560000169C943090716D4C168C943090712D4E0
:101570006FF008010161042020772068C0698007AE
:10158000204602D0FFF7AEFF04E000F05FF82046EF
:1015900000F05DF8257720680169C943C90617D4B2
:1015A000C168C943C90613D46FF010010161082056
:1015B00020772068C06910F4407F204602D0FFF7F2
:1015C00091FF04E000F042F8204600F040F8257753
:1015D00020680169C943C90708D1C168C943C9075F
:1015E00004D1891E0161204600F032F820680169AB
:1015F000C943090609D4C168C943090605D46FF077
:10160000800101612046FFF743FF20680169C9435B
:10161000490609D4C168C943490605D46FF04001A1
:101620000161204600F01EF820680169C94389065F
:101630000BD4C168C943890607D46FF0200101614A
:101640002046BDE87040FFF724BF70BD704770476B
:1016500000680349884201D1FFF7C2B97047000012
:10166000002C0140704770B5040004D094F8390094
:10167000002510B106E0012070BD84F838502046E6
:1016800000F022F8242084F839002068C16821F491
:101690000051C160204600F03FFB2068016921F441
:1016A000904101612068416921F02A01416120686F
:1016B000C16841F40051C160E563202084F839001D
:1016C00084F83A00002070BD30B585B00024009445
:1016D00001940294039400681449884223D1144869
:1016E000C16941F40031C161C16901F40031049163
:1016F000816941F00401816180690E4D00F00400B0
:101700000490042000900220019003200390694679
:101710002846FFF777F80820CDE9000469462846F7
:101720000294FFF76FF805B030BD000000440040A0
:1017300000100240000801402DE9F843044690F8EB
:1017400039001F4616460D46202850D1A5B19EB13E
:1017500094F8380001284AD0012084F838004FF06E
:101760000008C4F83C80212084F83900FFF732F9E2
:10177000A6848146E68426E00120BDE8F883E08C5B
:10178000401EE084A0684B46B0F5805F4FF0000239
:101790004FF080012046009703D000F075FBE8B9B8
:1017A0000DE000F071FBC8B928882168C0F308007B
:1017B0004860206908B16D1C05E0AD1C03E021689C
:1017C00015F8010B4860E08C0028D8D14B46002268
:1017D00040212046009700F057FB08B10320CCE7DA
:1017E000202084F8390084F838800020C5E70220E2
:1017F000C3E7FEE72DE9F0471D4C00201D4D1E4FAD
:10180000207004F101084FF480464FF47A79C1B298
:10181000384615F8112088F8002005EB4101002218
:10182000497888F801103146FFF7CFF810494B4648
:101830000222491C1148FFF777FD0A20FEF7D0FF6E
:10184000012231463846FFF7C0F80A20FEF7C8FFEC
:10185000002231463846FFF7B8F80A20FEF7C0FFED
:101860002078401CC0B220700528D0D3BDE8F08796
:10187000DF0000200A320008000C0140F4020020C2
:101880003EB5002410480094019402948460C46022
:101890000C4944610160012505614FF460214460F9
:1018A000C161FEF7D1FD08B1FEF74AFD0095CDE913
:1018B000015469460448FEF745FD002801D0FEF7B3
:1018C0003FFD3EBD002401404C03002010B594B004
:1018D000142219496846FEF771FC0021684600F0A1
:1018E00070FE164C144914226060143105A8FEF7EE
:1018F00065FC002105A800F064FE0F49A0601422D9
:1019000028310AA8FEF75AFC00210AA800F059FE67
:101910000949E06014223C310FA8FEF74FFC00217A
:101920000FA800F04EFE206100220421082001F0E3
:101930009FFA206014B010BD983100080C00002000
:101940002DE9F04186B000242848009401940294C7
:101950000394816941F010018161816901F01001F6
:101960000491816941F020018161816901F02001C8
:101970000491816941F004018161816901F00401F0
:101980000491816941F0080181618069184F00F07C
:1019900008004FF400550490002229463846FFF70E
:1019A00014F8DFF850806E00002231464046FFF701
:1019B0000CF80220CDE90240009501256946019509
:1019C0003846FEF71FFF28038DE831006946404680
:1019D000FEF718FF0096CDE901546946404603958D
:1019E000FEF710FF06B0BDE8F081000000100240D5
:1019F00000100140000C0140114810B50F49016072
:101A00004FF4827141604FF4004181600021C16058
:101A10004FF400720161C0E905121822C0E90721E4
:101A2000416281620A21C162FFF70CFC002803D0E9
:101A3000BDE81040FEF784BC10BD00000038004037
:101A4000F40200200C4810B50A4901604FF4E1315E
:101A50004160002181600C22C160C0E904128161F3
:101A6000C161FFF700FE002803D0BDE81040FEF77B
:101A700067BC10BD00440040B4020020FEE7704780
:101A80000907090E002806DA00F00F0000F1E02037
:101A900080F8141D704700F1E02080F800147047B2
:101AA0002DE9F047DFF84C80012408F11A01124FAC
:101AB00001EBC005A6034FF0FF3900BF291988F8D4
:101AC000004011F8091C88F8011000223146384600
:101AD000FEF77BFF4B46022206490848FFF724FC2D
:101AE000012231463846FEF770FF641C082CE5DD04
:101AF000BDE8F087E0000020000C0140F402002067
:101B000038B50B46009204460022802100F008F808
:101B1000002804D0606D40F020006065032038BDCF
:101B20002DE9F0411D4617460E460446DDF81880A3
:101B300035E0681C33D02DB1FEF74CFFA0EB080058
:101B4000A8422CD32068416821F0E0014160606820
:101B5000B0F5827F0BD1A068B0F5004F02D0B0F590
:101B6000806F04D12068016821F040010160A06A03
:101B7000B0F5005F0AD1206801684DF6FF72114090
:101B800001602068016841F400510160012084F87F
:101B90005100002084F850000320BDE8F081206847
:101BA000806836EA000004D00020B842C1D100208D
:101BB000F3E70120F9E7000010B5502080F3118809
:101BC000BFF34F8FBFF36F8F01F0E6F918B10449EF
:101BD0004FF080500860002080F3118810BD000095
:101BE00004ED00E030B593B028216846FEF7FFFA17
:101BF00014210AA8FEF7FBFA002501200F95109585
:101C00001195010412958DE8230004904FF4A01063
:101C1000CDE90810022407946846FFF791F900B156
:101C2000FEE70AA90F2081E831004FF48060CDE97A
:101C30000D0502210AA8FFF763F800B1FEE74FF493
:101C4000804011900F940FA8FEF7E4FF002800D009
:101C5000FEE713B030BD00000D48016841F00101FE
:101C6000016041680B4A1140416001680A4A114015
:101C70000160016821F480210160416821F4FE01C6
:101C800041604FF41F0181600449C0030860704740
:101C9000001002400000FFF8FFFFF6FE08ED00E034
:101CA0000148FFF720BC000074020020F0B5026874
:101CB000164B174C174D4FF08047984205D0B8424D
:101CC00003D0A04201D0A84203D122F070064A6896
:101CD0003243984205D0B84203D0A04201D0A84276
:101CE00003D122F44074CA68224322F080044A6976
:101CF000224302608A68C2620A688262984201D105
:101D00000969016301214161F0BD0000002C01401F
:101D100000040040000800402DE9F041044600683E
:101D20000169E26821F44051114301612169A06811
:101D30000843616908432168CA6841F20C639A4309
:101D40000243CA6020684169A26921F440711143CD
:101D500041614C4920686425322688423CD1FFF716
:101D6000A9F800EBC00101EB001061688900B0FB2D
:101D7000F1F7FFF79FF800EBC00101EB001061687D
:101D8000B0468900B0FBF1F0B0FBF5F06FF0180140
:101D9000484307EB800106EB0110B0FBF5F000F0C3
:101DA000F006FFF787F800EBC00101EB0010616857
:101DB0008900B0FBF1F0B0FBF5F006EB0016FFF781
:101DC00079F800EBC00101EB001061688900B0FBFD
:101DD000F1F7FFF76FF83BE0FFF75CF800EBC001AD
:101DE00001EB001061688900B0FBF1F7FFF752F8D2
:101DF00000EBC00101EB00106168B0468900B0FB48
:101E0000F1F0B0FBF5F06FF01801484307EB8001EB
:101E100006EB0110B0FBF5F000F0F006FFF73AF822
:101E200000EBC00101EB001061688900B0FBF1F02C
:101E3000B0FBF5F006EB0016FFF72CF800EBC00145
:101E400001EB001061688900B0FBF1F7FFF722F8A1
:101E500000EBC00101EB001061688900B0FBF1F0FC
:101E6000B0FBF5F06FF01801484307EB800108EB79
:101E70000110B0FBF5F0216800F00F0030448860DD
:101E8000BDE8F081003801402DE9F0419846174641
:101E90000E460446069D1DE0681C1BD02DB1FEF7C2
:101EA00099FDA0EB0800A84214D92068C16821F46C
:101EB000D071C1602068416921F001014161202099
:101EC00084F8390084F83A00002084F838000320B0
:101ED000BDE8F0812068006836EA000004D00020E8
:101EE000B842D9D00020F3E70120F9E7FEE702E08D
:101EF00008C8121F08C1002AFAD170477047002095
:101F000001E001C1121F002AFBD1704770B54FF4E8
:101F100080511548FEF754FD054602464FF4005126
:101F20001248FEF752FD15B1012D02D002E0002447
:101F300000E002240E4881784A1C827064290AD38A
:101F400000218170022C01D044B103E0417819B125
:101F500002210170447070BD0121FAE74278022A23
:101F6000F7D10321F5E70000000C0140001001400B
:101F700088000020024610B50020054B01465C5C3D
:101F8000944200D10120491C0529F8DB10BD000056
:101F90009800002038B51548FEF7A8FB4FF4FA71F9
:101FA0001248FEF70BFB1148FEF700FC0F48FEF746
:101FB00047FA00F007018DF80010C00800F0070193
:101FC0008DF80110C0F3C2008DF8020000206946B0
:101FD0000A5C401C02EB4402D4B20328F8DB04F094
:101FE0000700062800D9062038BD00004C03002059
:101FF0002DE9F04701240F4D0F4F4FF00008A603C5
:102000004FF0FF392C7085F80180002231463846A8
:10201000FEF7DBFC4B46022206490848FFF784F92D
:10202000012231463846FEF7D0FC641C082CE9DD5D
:10203000BDE8F087E0000020000C0140F402002021
:1020400010B5FFF7D7FB0548002101704170102142
:10205000BDE810403D3000F03BBD00009100002085
:102060002DE9F04134496424A1F109060F7848783C
:102070000022367801F10C034FF42F75072F54D24C
:10208000DFE807F004111E2333414E0002284DD132
:10209000012008704A703020587227480B210C30FC
:1020A00000F016FD42E0022808D108704A70312085
:1020B000587221480B210C3000F00AFD322435E023
:1020C000012EFBD1032008702DE002280BD1042043
:1020D00008704A703320587217480B210C3000F0FA
:1020E000F7FCFFF785FF2C4620E0022809D10520E8
:1020F00008704A70342058720F480B210C3000F0E1
:10210000E7FC052412E00228EDD1062008704A7091
:102110003520587208480B210C3000F0D9FCE2E75A
:10212000032ECBD10A704A70C8E70A70FFF7EEFEA3
:102130002046BDE8F0810000910000207FB512A587
:102140003CCD8DE83C0008B1062804D90D21684635
:1021500000F0BEFC7FBD104A104D4FF4804410705B
:102160005170002221462846FEF72FFC4FF0FF3326
:10217000022209490A48FFF7D7F8012221462846DA
:10218000FEF723FC7FBD0000436F6C4E6F745661F9
:102190006C69640A00000000E0000020000C0140AF
:1021A000F40200207FB514A53CCD8DE83C0018B1A9
:1021B000062801D8072904D90D21684600F088FCBB
:1021C0007FBD114A114D4FF48044107002F112008E
:1021D000405C5070002221462846FEF7F6FB4FF087
:1021E000FF33022208490A48FFF79EF801222146E0
:1021F0002846FEF7EAFB7FBD436F6C4E6F74566155
:102200006C69640A00000000E0000020000C01403E
:10221000F40200207FB514A53CCD8DE83C0018B138
:10222000062801D8072904D90D21684600F050FC82
:102230007FBD114A114D4FF48044107002F10A0025
:10224000405C5070002221462846FEF7BEFB4FF04E
:10225000FF33022208490A48FFF766F801222146A7
:102260002846FEF7B2FB7FBD436F6C4E6F7456611C
:102270006C69640A00000000E0000020000C0140CE
:10228000F40200207FB514A53CCD8DE83C0018B1C8
:10229000062801D8072904D90D21684600F018FC4A
:1022A0007FBD114A114D4FF480441070901C405C6A
:1022B0005070002221462846FEF787FB4FF0FF337F
:1022C000022209490A48FFF72FF801222146284631
:1022D000FEF77BFB7FBD0000436F6C4E6F74566151
:1022E0006C69640A00000000E0000020000C01405E
:1022F000F40200200948007806280ED2DFE800F03A
:1023000003050D07090B00F00BB800F01FB800F033
:1023100051B800F06FB800F0DFB8704791000020AE
:1023200010B5094C0020207001206070FFF760FE9E
:1023300004F10C01302048720B2104F10C0000F074
:10234000C7FB0220607010BD9100002070B5184ED0
:102350000125A6F1090435707570E078411CE17023
:10236000072810D3FF212079FFF7E8FE0020E07056
:102370002079401CC0B22071062804D925710220A2
:102380007070FFF735FE2079C107E17802D0FFF7C2
:1023900041FF01E0FFF706FF054931200C3148728B
:1023A000BDE8704002480B210C3000F091BB0000EA
:1023B0009100002070B50E4D0320A5F1090428708E
:1023C000607908B1401E6071C0B2FFF769FB6079A7
:1023D00018B90520607102206870054933200C315E
:1023E0004872BDE8704002480B210C3000F070BB11
:1023F00091000020FEB53648FEF778F94FF4FA71E7
:102400003348FEF7DBF83248FEF7D0F93048FEF7E4
:1024100017F800F00703C00800F007018DF800303E
:102420008DF80110C00800F007018DF80210C008F7
:1024300000F007018DF80310C00800F007018DF8C7
:102440000410C10800206A46165C401C3544EDB2F9
:102450000528F9DB15F0070002D0072802D002E0BA
:10246000012000E0062001F007058DF80550C9089D
:1024700001F007058DF80650890901F00705C1F341
:10248000C2018DF809108DF807508DF80A3005212A
:10249000535C491C2344DCB20A29F9DD04F007012E
:1024A000FFF7F0FE0B498879421C8A7109316428D4
:1024B00001D30220487004200870064934201531E9
:1024C000487204480B21153000F002FBFEBD0000ED
:1024D0004C030020880000202DE9F041FFF75AFD51
:1024E000254C074604F11005E06804F120060F288A
:1024F00011D23846FFF73EFD012808D0E0790021CF
:102500002F543846FFF71AFE3037B77216E0E068EE
:10251000401CE0601DE018480E21383000F0D8FA69
:10252000207AFFF727FD0128207A10D0E17968543E
:102530000021FFF703FE207A3030B0720E480C21E4
:10254000203000F0C5FAE079401CE07101E0401C49
:1025500020720949E0792C313030887206480C210C
:102560002C3000F0B5FAE079052803D102490220A9
:1025700009314870BDE8F08188000020FEF738FA84
:10258000FFF730FBFFF7DCF9FFF75CFAFFF734FAEF
:10259000FFF776F9FFF79AF900F00EF8FEE701462B
:1025A0000020842900D0C81C704710B500B9012054
:1025B00000F04EFB002010BD10B500F0B5FB002070
:1025C00010BD3EB504460D46B0F90800FFF7E7FF21
:1025D00002A9CDE90001208A2B4682B2D4E900107D
:1025E00000F0AEFC012801D000203EBD02983EBDA7
:1025F0002DE9F0411A4C0F460546E6682168002097
:1026000081F851002068001D00F06CFA38B920688C
:1026100090F82C1001208840216981432161681CB9
:1026200007D137B12168BDE8F0410E48091D00F01F
:1026300091BA20683544B5424560216805D2A06B47
:10264000BDE8F041091D00F06DBA606B091D00F096
:1026500069FAA06A854200D2A562BDE8F081000057
:102660002C000020580400202DE9F041054600F020
:102670007DFA2E4CA068401CA06020682C4F10B141
:10268000606940B32DE02560A068012829D10026AB
:1026900006EB860007EB800000F036FA761C072E6A
:1026A000F6D323488C3000F02FFA2148A03000F0F8
:1026B0002BFA1F48B43000F027FA1D48C83000F04C
:1026C00023FA1B48DC3000F01FFA19488C30606395
:1026D0001430A06305E02068E96AC06A884200D827
:1026E0002560606A401C6062E96A012022698840B6
:1026F0001043206101EB810007EB8000291D00F0F1
:1027000029FA00F053FA606900280CD02068E96AC1
:10271000C06A884207D207494FF080500860BFF373
:102720004F8FBFF36F8FBDE8F08100002C000020B9
:102730007C03002004ED00E070B5114E114C17E051
:1027400000F026FB3068B8B100F0C4FC00F00EFACF
:10275000F068C568281D00F0C5F9A068401EA0609B
:102760006068401E606000F021FA284600F00CF816
:1027700060680028E4D170BD00F0ACFCF8E7000010
:10278000440400202C00002010B50446006B00F02B
:1027900021FA2046BDE8104000F01CBA10484FF462
:1027A0008051420706D0C01D0D4920F00700411A94
:1027B000C1F580510B4A00230144C2E900030839E6
:1027C000103A21F0070111604B600B600B1AC0E951
:1027D000001393604FF000405360D06070470000DA
:1027E0006C04002078000020074C4FF08056074D05
:1027F000FFF7A2FF20680128FAD92E60BFF34F8FA0
:10280000BFF36F8FF4E700007C03002004ED00E0CD
:102810002DE9F0479A46DDE9098481466FF003030C
:10282000206B03EB82021044089D20F0070670071E
:1028300007D0502080F31188BFF34F8FBFF36F8F05
:10284000FEE723180A5C83F834200A5C12B1401CAE
:102850001028F6D3002784F84370072D00D30625EF
:10286000E562C4E91157201D00F059F904F1180080
:1028700000F055F92461C5F107006462A061E764C6
:1028800084F8507084F8517052464946304600F042
:10289000BFF82060B8F1000F01D0C8F80040BDE8D3
:1028A000F087000030B5114900E011460A68824205
:1028B000FBD34B685C18844203D1406818444860DD
:1028C000084643681C18944209D1084C103C2468FF
:1028D000A24209D052681A4442600A681268026033
:1028E000814200D0086030BD0460F9E77800002024
:1028F0000648416B096829B1416BC968C9684968D4
:10290000816270474FF0FF31FAE700002C00002091
:1029100008484068401C4FF0500080F3118804D0F4
:10292000BFF34F8FBFF36F8FFEE7BFF34F8FBFF340
:102930006F8FFEE7200000202DE9F04105460027BB
:1029400000F026FA314E306808B9FFF727FFF0682B
:1029500005424BD1C5B3083568070ED005F0070016
:10296000C0F108000544680707D0502080F31188A3
:10297000BFF34F8FBFF36F8FFEE72DB370688542B3
:1029800034D82248103001460C6801E020460C463D
:102990006168A94202D221680029F7D131688C42CE
:1029A00024D007682168016060680837411B10293E
:1029B0000FD96019420708D0502080F31188BFF367
:1029C0004F8FBFF36F8FFEE710E041606560FFF748
:1029D00069FF61687068401A7060B268904200D206
:1029E000B060F06801430020C4E9000100F072FB10
:1029F000780707D0502080F31188BFF34F8FBFF3C3
:102A00006F8FFEE73846BDE8F081000068000020C7
:102A100010B5031F4FF080741C601B1F21F00101D3
:102A20001960191F024B0B60143940380A6010BD41
:102A3000112900080120FFF7B8FDFBE708B54FF4A6
:102A4000FA7400BF00F024F82146684600F026F929
:102A5000F8E708B50024FFF7F3FAFFF701FB322887
:102A600000D232202146641CA4B2814202D3002449
:102A7000FFF740FC0121684600F010F9EDE708B5CA
:102A80004FF47A742146684600F008F9FAE700002E
:102A90003EB50C4A0C4C4FF0FF3307CA8DE80700D7
:102AA0002078062230308DF8040069460748FEF78A
:102AB00043FE2078411C2170092801D3002020709A
:102AC0003EBD00000032000884000020B402002057
:102AD0000A4601464FF0FF330148FEF72DBE0000C5
:102AE000B4020020D0E9013201699A60D0E90123E3
:102AF0005A604A68824201D182684A6000220261BB
:102B00000868401E0860704700F108014FF0FF326E
:102B1000C0E90112C160016100210160704700211C
:102B20000161704730B50B685A1C02D000F10802F1
:102B300002E0026904E02246546825689D42FAD901
:102B400053684B6099608A60516008610168491C54
:102B5000016030BD42684A6093688B609368596039
:102B6000916008610168491C01607047502080F342
:102B70001188BFF34F8FBFF36F8F0A494868401C1D
:102B8000486001280CD10848006810F0FF0F07D0FA
:102B9000502080F31188BFF34F8FBFF36F8FFEE794
:102BA000704700002000002004ED00E0084948685C
:102BB00028B1401E486001D180F311887047502031
:102BC00080F31188BFF34F8FBFF36F8FFEE70000D4
:102BD0002000002070B5002827D0144DA0F1080473
:102BE0006168E868014207D1502080F31188BFF383
:102BF0004F8FBFF36F8FFEE722683AB1502080F30A
:102C00001188BFF34F8FBFF36F8FFEE78143616081
:102C100000F0BEF860686968084468602046FFF705
:102C200041FEBDE8704000F055BA70BD680000205C
:102C300006484FF47A710068B0FBF1F14FF0E020E4
:102C4000491E41610721016170470000800000209A
:102C500010B5020014D00F48006B38B1502080F33B
:102C60001188BFF34F8FBFF36F8FFEE700F090F82E
:102C700000211046FFF7BCFC00F02CFA002807D119
:102C800005494FF080500860BFF34F8FBFF36F8F3F
:102C900010BD00002C00002004ED00E070B50D46D2
:102CA00004000BD095B11E4A106BB8B1502080F3D0
:102CB0001188BFF34F8FBFF36F8FFEE7502080F373
:102CC0001188BFF34F8FBFF36F8FFEE7502080F363
:102CD0001188BFF34F8FBFF36F8FFEE700F058F8F6
:102CE000D26823685919934204D98B420AD9914278
:102CF00002D807E08B42FAD9881A21600021FFF739
:102D000077FC00E0216000F0E5F9002807D10549D3
:102D10004FF080500860BFF34F8FBFF36F8F70BDCF
:102D20002C00002004ED00E01CB515480024CDE97E
:102D300000402346802213A1144800F001F9012825
:102D400009D0401C1AD1502080F31188BFF34F8F57
:102D5000BFF36F8FFEE7502080F31188BFF34F8FD2
:102D6000BFF36F8F06484FF0FF312C38816201218D
:102D70004161C460BDE81C4000F040B81CBD0000CB
:102D80005800002049444C4500000000E927000895
:102D90000248016B491C0163704700002C000020B1
:102DA0001448016B11B10121C16170470021C1615B
:102DB0000169B1FA81F1C1F11F0101EB81020E49F4
:102DC00051F822306BB101EB820101F108034A682E
:102DD00052684A609A4201D152684A60D1680160E3
:102DE0007047502080F31188BFF34F8FBFF36F8F70
:102DF000FEE700002C0000207C0300201CB51949D0
:102E000008780190FF20087008788DF800009DF880
:102E10000000154A00F0500010700720906005E097
:102E20009DF800305B008DF80030401E9DF80030AA
:102E30001B06F5D4000200F4E06090600198087071
:102E40000A48016841F470010160016841F0704175
:102E50000160FFF7EDFE00205060FDF763F90020F0
:102E60001CBD000000E400E02000002020ED00E098
:102E700070B50E46050013D0D6B105FB06F04830FC
:102E8000FFF75AFD040009D004F1480120468EB135
:102E90000160C0E90F56012100F00EF8204670BD18
:102EA000502080F31188BFF34F8FBFF36F8FFEE781
:102EB0000020E4E70060ECE770B50D46040025D083
:102EC000FFF754FED4E90F20216802FB0011616076
:102ED0000021A1632168A1600A46D4E90F01401EC8
:102EE00000FB0121E16021464FF0FF3001F8440F63
:102EF000487004F110008DB1FFF706FE04F12400C4
:102F0000FFF702FEFFF752FE012070BD502080F354
:102F10001188BFF34F8FBFF36F8FFEE72169002940
:102F2000F0D000F09DF80028ECD004494FF080501C
:102F30000860BFF34F8FBFF36F8FE3E704ED00E04E
:102F40002DE9FF5F8346DDE90E87994616468A46DE
:102F50009000FFF7F1FC05001AD05420FFF7ECFCBD
:102F6000040012D025630021CDE90241CDE900879C
:102F70004B46324651465846FFF74AFC2046FFF77B
:102F800073FB012004B0BDE8F09F2846FFF722FE46
:102F90004FF0FF30F6E700002DE9F0412E4C0027FE
:102FA000206B40B1A069401CA061E06900B101271D
:102FB0003846BDE8F081E668761CE66013D1606BA8
:102FC000006838B1502080F31188BFF34F8FBFF3F2
:102FD0006F8FFEE7606BA16B6163A063206A401C8A
:102FE0002062FFF785FCA06ADFF87080864209D373
:102FF000606B006880B1606BC068C56868688642B5
:103000000DD2A0622068C06A00EB800158F8210050
:103010000128CAD90127C8E74FF0FF30F1E7281D82
:10302000FFF760FDA86A18B105F11800FFF75AFD17
:10303000E86A0121226981401143216100EB80018E
:1030400008EB8100291DFFF785FDE86A2168C96A40
:103050008842CDD30127CBE72C0000207C03002041
:103060002DE9F041C068C468ACB104F1180007460E
:10307000FFF738FD154D286B0126A0B139461448DD
:10308000FFF768FDE06A2968C96A88421CD90120F7
:10309000EE61BDE8F081502080F31188BFF34F8FBF
:1030A000BFF36F8FFEE7201DFFF71CFDE16A2A6961
:1030B00006FA01F01043286101EB81000449B4399C
:1030C00001EB8000211DDBE70020E2E72C0000205F
:1030D000300400202DE9F0472C4D00242746286BB2
:1030E00038B1FFF743FD286B401E2863286B40B1C1
:1030F00046E0502080F31188BFF34F8FBFF36F8FEE
:10310000FEE7A968224E0120D1B3A6F1B40980469A
:103110003068E8B1F068C46804F11800FFF7E2FC19
:10312000201DFFF7DFFCE06A2A6908FA00F111436D
:10313000296100EB800109EB8100211DFFF70AFDE9
:10314000E06A2968C96A8842E2D3C5F81C80DFE7D3
:103150000CB1FFF7CDFBAC6944B14646FFF71CFF4D
:1031600000B1EE61641EF9D10020A861E86938B1B0
:103170000849012738070860BFF34F8FBFF36F8FEF
:10318000FFF714FD3846BDE8F08700002C00002052
:103190003004002004ED00E020320008352A000849
:1031A000FEFF000000000000800000005032000818
:1031B0007F2A0008000000000000000080000000DE
:1031C000403200083D2A0008FEFF00000000000019
:1031D0008000000030320008532A0008010000007F
:1031E000000000008000000000000000000000005F
:1031F000010203040607080900000000010203049D
:103200005469636B200A0000000009000A0C0B07D8
:103210000C010F0000000000000000000000000092
:103220006261636B47726F756E645461736B00000B
:103230006C656437736567466173745461736B00C2
:103240006465627567536C6F775461736B0000003F
:1032500073656E736F72536C6F775461736B00009C
:1032600080320008000000207402000028020008DC
:10327000DC33000874020020FC150000FE1E00086C
:103280003201021F101AAA01015984A24A04F30153
:10329000051821437572725374617465580A436F3F
:1032A0006C52656D6F76655F580A53656C65637423
:1032B00065645F0C401F5061727469616C52616E8D
:1032C000646F6D0A4C6564496E697446696E697312
:1032D0006865640A181B804020100804020180C041
:1032E000E0F0F8FCFEFF0103070F1F3F7FFF3C24C7
:1032F00001223C1E0818280808084E3C043C2020E7
:10330000081B040408372020283C08082D1C202412
:103310001C111B1C240822382D10103810292718C6
:1033200024241824182B04080A21194E39082928A6
:1033300023241C1B3804011930191019124959197A
:1033400037113C04041C617D382434043829681C7E
:1033500008080827111B1C1062312F24140C142498
:1033600004382901213622222A36221E22322A2618
:10337000220919763970195029604C403834103BB5
:103380002414103D182420186019575C08083E309A
:10339000311C081422012136446C5444442E282840
:1033A000102828D72A102221367C0810207C1718D4
:1033B0003C7E7F77238009FFE7C3C18181CBFF6912
:1033C000095AFF095AFF0919083909290829093931
:0C33D00008190949086AFF0819120000DA
:04000005080000ED02
:00000001FF
