:020000040800F2
:1000000098170020990100080B130008DB10000866
:10001000091300087F0200086117000800000000B3
:1000200000000000000000000000000001010008C6
:100030008102000800000000450100084514000886
:10004000B3010008B3010008B3010008B3010008C0
:10005000B3010008B3010008B3010008B3010008B0
:10006000B3010008B3010008B3010008B3010008A0
:10007000B3010008B3010008B3010008B301000890
:10008000B3010008B3010008B3010008B301000880
:10009000B3010008B3010008B3010008B301000870
:1000A000B301000815150008B3010008B3010008EA
:1000B000B3010008B3010008B3010008B301000850
:1000C000B3010008B3010008B3010008B301000840
:1000D000B3010008B3010008B3010008B301000830
:1000E000B3010008B3010008B3010008DFF80CD029
:1000F00000F088F800480047B9170008981700205A
:10010000224B19680868B0E8F00F80F30988BFF344
:100110006F8F4FF0000080F311884EF00D0E704786
:100120000000000006480068006880F3088862B696
:1001300061B6BFF34F8FBFF36F8F00DF00BF00BF0B
:1001400008ED00E0EFF30980BFF36F8F0F4B1A68E3
:1001500020E9F00F106008B54FF0500080F31188CF
:10016000BFF34F8FBFF36F8F01F036FF4FF00000EA
:1001700080F31188BDE8084019680868B0E8F00FFE
:1001800080F30988BFF36F8F704700BF2C000020F9
:10019000EFF3058070470000064880470648004797
:1001A000FEE7FEE7FEE7FEE7FEE7FEE7FEE7FEE727
:1001B000FEE7FEE7CD140008ED00000840EA010369
:1001C0009B0703D009E008C9121F08C0042AFAD20D
:1001D00003E011F8013B00F8013B521EF9D27047D1
:1001E000D2B201E000F8012B491EFBD27047002279
:1001F000F6E710B513460A4604461946FFF7F0FF26
:10020000204610BD064C074D06E0E06840F00103B3
:1002100094E8070098471034AC42F6D3FFF76AFF22
:1002200098240008B824000870B58C1810F8015BF9
:1002300015F0070301D110F8013B2A1106D110F87F
:10024000012B03E010F8016B01F8016B5B1EF9D183
:100250002B0705D40023521E0DD401F8013BFAE709
:1002600010F8013BCB1A921C03E013F8015B01F874
:10027000015B521EF9D5A142D8D3002070BDFEE724
:100280007047FEE770B5044600F0F2F80546601CC2
:1002900002D004480078044400F0EAF8401BA04271
:1002A000FAD370BD000000202DE9F84FDFF890A1CF
:1002B00000220AF1040B144601274FF00F090BF13D
:1002C000040E00BF0B6807FA04F52B40AB4274D153
:1002D000DFF870C14E68A6EB0C0866452BD00DDC2C
:1002E000032E34D005DC36B3012E19D0022E2FD1C7
:1002F0001BE0112E16D0122E2AD119E0B8F5881F56
:1003000019D006DCB8F5803F15D0B8F5801F1FD195
:1003100011E0B8F5001F0ED0B8F5041F18D10AE09F
:10032000CA6815E0CA68121D12E0CA6808320FE0F8
:10033000CA680C320CE08A682AB1012A4FF0080220
:1003400003D0456104E0042202E0056100E00022E0
:10035000FF2B01D8064601E000F104064FEA8405B0
:1003600001D9A5F12005D6F800C009FA05F82CEA54
:10037000080C02FA05F54CEA050CC6F800C04D68F9
:10038000ED0057D5304DAE6946F00106AE61AD695E
:1003900024F0030605F0010500952C4D06EB050C35
:1003A000DCF80850A6074FEA167809FA08F6B543B4
:1003B000274EB04202D1002610E03BE0254EB0426D
:1003C00001D101260AE0244EB04201D1022605E007
:1003D000224EB04201D1032600E0042606FA08F6B8
:1003E0002E43CCF808604D68DAF80060ED035546FE
:1003F00001D51E4300E09E432E604D68DBF800608F
:10040000AD035D4601D51E4300E09E432E604D685E
:10041000DEF80060ED02754601D51E4300E09E4304
:100420002E604D68AD020E4D2E6801D51E4300E0D2
:100430009E432E60641C102CFFF444AFBDE8F88F7F
:1004400000040140000011100010024000000140B3
:1004500000080140000C0140001001400014014060
:100460000C0401400AB1016170470904FBE7000078
:100470000148806870470000000000200248816841
:10048000027811448160704700000020074810B5D1
:10049000016841F010010160032000F093F8002092
:1004A00000F006F800F03EF8002010BD00200240E9
:1004B00000B5014687B00022192000F063F819202A
:1004C00000F054F81348816941F40061816180694A
:1004D00005A900F400600690684600F02FF900F0CE
:1004E0005DF90D490D4AB0FBF1F10D48491E02605E
:1004F000416040F2E7320021C0E90321816000F051
:100500003DFC10B1012007B000BD054800F052FCD1
:10051000F9E700000010024040420F00002C0140AB
:10052000CC0100200F4808B5816941F001018161CB
:10053000816901F001010091C16941F08051C161FF
:10054000C069002200F0805000900F21901E00F042
:1005500019F80548416821F0E06141F0806141608F
:1005600008BD0000001002400000014000F01F0222
:10057000012191404009800000F1E020C0F8001105
:1005800070470000F0B40E4B1B680C46C3F3022307
:10059000C3F10705042D00D90425191D072901D22F
:1005A000002300E0DB1E012606FA05F1491E21406A
:1005B00099409E40761E16403143F0BC00F0A6BE26
:1005C0000CED00E0064900F0070208684FF6FF0353
:1005D000184040EA0220034A1043086070470000B8
:1005E0000CED00E00000FA052DE9F047DFF83C8152
:1005F00005460E46D8F8000000F00700B0420CD2C5
:10060000D8F8001021F007013143C8F80010D8F8DD
:10061000000000F00700B04263D12878444C800706
:1006200005D56068A96820F0F0000843606028786C
:10063000C00745D06868012816D02168022816D066
:10064000890700294DDA616821F0030101436160E7
:10065000FFF70EFF6968074641F2883001290FD085
:100660000229814619D027E021688903E9E7890139
:10067000E7E700BFFFF7FCFEC11B494501D918E0C1
:1006800081466068C0F381000128F3D118E000BF03
:10069000FFF7EEFEC11B49450BD86068C0F381002F
:1006A0000228F5D10CE000BFFFF7E2FEC11B49456F
:1006B00002D90320BDE8F087606810F00C0FF3D179
:1006C000D8F80010404601F00701B1420BD901688B
:1006D00021F0070131430160006800F00700B042DB
:1006E00001D00120E6E72878400705D56068E96871
:1006F00020F4E060084360602878000706D5606851
:10070000296920F4605040EAC100606000F056F8AA
:100710006168084AC1F30311515CC840064908608A
:100720000020FFF7C5FE0020C4E7000000200240C3
:100730000010024020240008800000200F220260E8
:100740000C4A536803F003034360536803F0F0035B
:100750008360536803F4E063C36052684FF4E0635E
:1007600003EAD20202610448006800F00700086052
:100770007047000000100240002002400448054974
:1007800000684968044AC1F30221515CC8407047BF
:100790008000002000100240302400080448054971
:1007A00000684968044AC1F3C221515CC8407047DF
:1007B00080000020001002403024000812A185B003
:1007C0000FC98DE80F0014A0144A00680490516806
:1007D000134801F00C03042B10D0082B0ED1C1F3E9
:1007E0008343C9031DF803000AD5516804AAC1F365
:1007F0004041515C0A4A5043B0FBF1F005B07047EC
:1008000008494843FAE700000203040506070809FF
:100810000A0B0C0D0E0F1010010200000010024018
:1008200000127A0000093D002DE9F84F04460078D7
:10083000B94DC00748D06868C0F38100012807D0CF
:100840006868C0F38100022809D16868C00306D532
:100850002868800338D5606800286FD034E060686D
:10086000B0F5803F0BD010B1B0F5A02F11D02868A3
:1008700020F480302860286820F4802002E0286876
:1008800040F480302860606888B1FFF7F1FD0646CB
:1008900009E0286840F480202860F0E7FFF7E8FDD1
:1008A000801B642875D828688003F7D50CE0FFF713
:1008B000DFFD064605E000BFFFF7DAFD801B642878
:1008C000F0D828688003F7D42078944E80074FF042
:1008D00001094FF000083BD5686810F00C0F07D0F5
:1008E0006868C0F38100022809D16868C00306D493
:1008F0002868800714D5206901281FD110E02069DD
:10090000B0B1C6F80090FFF7B3FD074605E000BFA1
:10091000FFF7AEFDC01B0228C4D828688007F7D5B2
:100920002868616920F0F80040EAC10028600FE003
:10093000C6F80080FFF79CFD074606E0E9E000BF2F
:10094000FFF796FDC01B022823D828688007F7D43C
:10095000207800072CD57248A169D9B1C0F8009061
:10096000FFF786FD074604E0FFF782FDC01B022863
:100970000FD8686A8007F7D56A484FF4FA510068C3
:10098000B0FBF1F0009000BF0098411E0091FAD238
:100990000EE080E0C0F80080FFF76AFD074604E043
:1009A000FFF766FDC01B022875D8686A8007F7D478
:1009B0002078400760D5E8690027C00008D4E869BE
:1009C00040F08050E861E869012700F08050009015
:1009D00055480168C90513D40168834641F4807104
:1009E0000160FFF745FD824606E000BFFFF740FDCE
:1009F000A0EB0A0064284ED8DBF80000C005F5D54E
:100A0000E06801280AD008B1052813D0286A20F030
:100A100001002862286A20F0040002E0286A40F001
:100A200001002862E06841F2883B98B1FFF720FDA1
:100A300082460BE0286A40F004002862EEE700BF1F
:100A4000FFF716FDA0EB0A0159455AD8286A80071E
:100A5000F6D50CE0FFF70CFD824605E0FFF708FD38
:100A6000A0EB0A0159454CD8286A8007F6D41FB17B
:100A7000E86920F08050E861E06988B36968C1F3F3
:100A80008101022945D00228C6F8608004D0FFF712
:100A9000EFFC044638E034E0FFF7EAFC074604E0E8
:100AA000FFF7E6FCC01B02282BD828688001F7D48A
:100AB000206AB0F5803F05D16868A16820F4003055
:100AC00008436860D4E908010843696821F4741197
:100AD00008436860C6F86090FFF7CAFC044606E069
:100AE00015E000BFFFF7C4FC001B022809D82868E6
:100AF0008001F7D50BE000BFFFF7BAFC001B02280E
:100B000002D90320BDE8F88F28688001F4D40020C2
:100B1000F8E70120F6E70000001002400000424222
:100B200080044242800000200070004070B5040044
:100B300005D00025A56294F8510010B104E0012011
:100B400070BD204600F034F8022084F8510020687F
:100B5000016821F040010160D4E901010843D4E9B2
:100B600003121143084361690843218B01F40071AA
:100B70000843E1690843216A0843A16A08432168E0
:100B80000860A069042101EA1040616A08432168F5
:100B900048602168E06A08612068C16921F4006149
:100BA000C1616565012084F85100002070BD00001E
:100BB00000B585B000210091019102910391006878
:100BC000104988421BD11048C16941F48041C1617C
:100BD000C16901F480410491816941F0080181619A
:100BE0008069694600F0080004904FF420400090AE
:100BF00002200190012003900448FFF755FB05B047
:100C000000BD00000038004000100240000C014010
:100C10002DE9F84F044690F85000002699461746F3
:100C20000D4601280DD04FF0010B84F850B0FFF7AE
:100C30001FFC804694F85100B246012804D00226D9
:100C400094E00220BDE8F88F002D7BD0002F79D0F2
:100C5000032084F85100C4F854A02563A786E786D2
:100C6000C4F838A0A4F83CA0A4F83EA0C4F844A05E
:100C7000C4F840A0A068B0F5004F04D12068016816
:100C800041F48041016020680168490603D401688D
:100C900041F040010160E068B0F5006F606804D089
:100CA00030B3E08E012823D03EE010B1E08E012861
:100CB0001AD135F8021B206805E020688168890791
:100CC00006D535F8021BC160E08E401EE0860BE0C1
:100CD000B9F1000F34D0B9F1FF3F05D0FFF7C8FBE1
:100CE000A0EB080149452BD2E08E0028E5D11EE09B
:100CF000216815F8010B087306E0206881688907F0
:100D000006D515F8011B0173E08E401EE0860BE04E
:100D1000B9F1000F14D0B9F1FF3F05D0FFF7A8FBE0
:100D2000A0EB080149450BD2E08E0028E5D14B46E7
:100D3000012202212046CDF8008000F037FB10B1DF
:100D4000032613E011E042464946204600F01EFB10
:100D500018B101262020606508E0A06818B9206855
:100D6000C16880680090606D00B1012684F851B0C0
:100D700084F850A0304665E77047704710B504000E
:100D800003D094F83D0010B107E0012010BD002011
:100D900084F83C00204600F00CF8022084F83D0066
:100DA000211D206800F0BCFB012084F83D000020DC
:100DB00010BD70470168CA6842F00102CA6000684D
:100DC000016841F00101016000207047704770B573
:100DD0000446006801694FF00005C943890715D42E
:100DE000C168C943890711D4E91E01610120207738
:100DF000206880698007204602D0FFF7E7FF04E003
:100E000000F098F8204600F096F8257720680169F0
:100E1000C943490717D4C168C943490713D46FF0C0
:100E200004010161022020772068806910F4407F6E
:100E3000204602D0FFF7CAFF04E000F07BF820460E
:100E400000F079F8257720680169C943090716D4AD
:100E5000C168C943090712D46FF008010161042079
:100E600020772068C0698007204602D0FFF7AEFFD8
:100E700004E000F05FF8204600F05DF82577206878
:100E80000169C943C90617D4C168C943C90613D447
:100E90006FF010010161082020772068C06910F40C
:100EA000407F204602D0FFF791FF04E000F042F8B7
:100EB000204600F040F8257720680169C943C9073A
:100EC00008D1C168C943C90704D1891E0161204600
:100ED00000F032F820680169C943090609D4C168E5
:100EE000C943090605D46FF0800101612046FFF770
:100EF00043FF20680169C943490609D4C168C94351
:100F0000490605D46FF040010161204600F01EF84B
:100F100020680169C94389060BD4C168C9438906A1
:100F200007D46FF0200101612046BDE87040FFF753
:100F300024BF70BD7047704700680349884201D1E3
:100F4000FFF79CBA70470000002C0140704770B555
:100F5000040004D094F83900002510B106E0012007
:100F600070BD84F83850204600F022F8242084F820
:100F700039002068C16821F40051C160204600F0AA
:100F800005FB2068016921F49041016120684169F5
:100F900021F02A0141612068C16841F40051C1601B
:100FA000E563202084F8390084F83A00002070BD01
:100FB00030B585B000240094019402940394006835
:100FC0001449884223D11448C16941F40031C161F8
:100FD000C16901F400310491816941F0040181612A
:100FE00080690E4D00F0040004900420009002205F
:100FF00001900320039069462846FFF755F9082021
:10100000CDE90004694628460294FFF74DF905B082
:1010100030BD0000004400400010024000080140C4
:101020002DE9F843044690F839001F4616460D4650
:10103000202850D1A5B19EB194F8380001284AD09B
:10104000012084F838004FF00008C4F83C802120CB
:1010500084F83900FFF70CFAA6848146E68426E07E
:101060000120BDE8F883E08C401EE084A0684B4678
:10107000B0F5805F4FF000024FF0800120460097EE
:1010800003D000F03BFBE8B90DE000F037FBC8B936
:1010900028882168C0F308004860206908B16D1CE9
:1010A00005E0AD1C03E0216815F8010B4860E08CF9
:1010B0000028D8D14B46002240212046009700F05E
:1010C0001DFB08B10320CCE7202084F8390084F808
:1010D00038800020C5E70220C3E7FEE72DE9F0478E
:1010E0001D4C00201D4D1E4F207004F101084FF4CF
:1010F00080464FF47A79C1B2384615F8112088F845
:10110000002005EB41010022497888F801103146A2
:10111000FFF7A8F910494B460222491C1148FFF776
:1011200077FD0A20FFF7AEF8012231463846FFF777
:1011300099F90A20FFF7A6F8002231463846FFF752
:1011400091F90A20FFF79EF82078401CC0B2207069
:101150000528D0D3BDE8F08797000020422400087E
:10116000000C01404C02002010B594B01422194923
:101170006846FFF723F80021684600F03EFB164C56
:10118000144914226060143105A8FFF717F80021F4
:1011900005A800F032FB0F49A060142228310AA8EC
:1011A000FFF70CF800210AA800F027FB0949E060CE
:1011B00014223C310FA8FFF701F800210FA800F01E
:1011C0001CFB206100220421082000F06DFF20603C
:1011D00014B010BDD02300080C0000202DE9F04110
:1011E00086B00024244800940194029403948169F9
:1011F00041F010018161816901F010010491816960
:1012000041F020018161816901F02001049181692F
:1012100041F004018161816901F004010491816957
:1012200041F0080181618069144F00F008004FF41B
:1012300000550490002229463846FFF713F9DFF8DD
:1012400040806E00002231464046FFF70BF9022035
:10125000CDE9024000950125694601953846FFF722
:1012600023F80096CDE90154694640460395FFF7FF
:101270001BF806B0BDE8F0810010024000100140EC
:10128000000C0140114810B50F4901604FF4827104
:1012900041604FF4004181600021C1604FF4007251
:1012A0000161C0E905121822C0E90721416281628B
:1012B0000A21C162FFF73AFC002803D0BDE81040C4
:1012C000FEF7DFBF10BD0000003800404C020020D8
:1012D0000C4810B50A4901604FF4E131416000212A
:1012E00081600C22C160C0E904128161C161FFF715
:1012F0002EFE002803D0BDE81040FEF7C2BF10BD8F
:10130000004400400C020020FEE770470907090E68
:10131000002806DA00F00F0000F1E02080F8141D2C
:10132000704700F1E02080F8001470472DE9F04785
:10133000DFF84C80012408F10201124F01EBC005D7
:10134000A6034FF0FF3900BF291988F8004011F8B3
:10135000091C88F80110002231463846FFF782F850
:101360004B46022206490848FFF752FC012231464B
:101370003846FFF777F8641C082CE5DDBDE8F087F8
:1013800098000020000C01404C02002038B50B46AC
:10139000009204460022802100F008F8002804D0C2
:1013A000606D40F020006065032038BD2DE9F041FC
:1013B0001D4617460E460446DDF8188035E0681CC9
:1013C00033D02DB1FFF754F8A0EB0800A8422CD37E
:1013D0002068416821F0E00141606068B0F5827FDB
:1013E0000BD1A068B0F5004F02D0B0F5806F04D1EA
:1013F0002068016821F040010160A06AB0F5005F3B
:101400000AD1206801684DF6FF7211400160206822
:10141000016841F400510160012084F8510000206E
:1014200084F850000320BDE8F0812068806836EA27
:10143000000004D00020B842C1D10020F3E7012011
:10144000F9E7000010B5502080F31188BFF34F8FEB
:10145000BFF36F8F00F0BCFE18B104494FF080500D
:101460000860002080F3118810BD000004ED00E04A
:1014700030B58FB028216846FEF7B9FE14210AA8BE
:10148000FEF7B5FE01210804CDE900100024029406
:1014900002250491CDE907504FF4E0100990684609
:1014A000FFF7C2F900B1FEE70F20CDE90A05802061
:1014B0000C90C000CDE90D0402210AA8FFF794F8B2
:1014C000002800D0FEE70FB030BD00000D480168D5
:1014D00041F00101016041680B4A1140416001681F
:1014E0000A4A11400160016821F4802101604168CD
:1014F00021F4FE0141604FF41F0181600449C003E3
:1015000008607047001002400000FFF8FFFFF6FE81
:1015100008ED00E00148FFF75ABC0000CC010020B4
:10152000F0B50268164B174C174D4FF080479842A4
:1015300005D0B84203D0A04201D0A84203D122F086
:1015400070064A683243984205D0B84203D0A042A0
:1015500001D0A84203D122F44074CA68224322F089
:1015600080044A69224302608A68C2620A68826211
:10157000984201D10969016301214161F0BD000078
:10158000002C014000040040000800402DE9F0411B
:10159000044600680169E26821F440511143016189
:1015A0002169A0680843616908432168CA6841F25B
:1015B0000C639A430243CA6020684169A26921F41E
:1015C0004071114341614C492068642532268842AC
:1015D0003CD1FFF7E3F800EBC00101EB00106168BC
:1015E0008900B0FBF1F7FFF7D9F800EBC00101EB80
:1015F00000106168B0468900B0FBF1F0B0FBF5F077
:101600006FF01801484307EB800106EB0110B0FBB7
:10161000F5F000F0F006FFF7C1F800EBC00101EBB8
:10162000001061688900B0FBF1F0B0FBF5F006EB4B
:101630000016FFF7B3F800EBC00101EB0010616882
:101640008900B0FBF1F7FFF7A9F83BE0FFF796F848
:1016500000EBC00101EB001061688900B0FBF1F7FD
:10166000FFF78CF800EBC00101EB00106168B04699
:101670008900B0FBF1F0B0FBF5F06FF018014843C2
:1016800007EB800106EB0110B0FBF5F000F0F0066F
:10169000FFF774F800EBC00101EB001061688900EE
:1016A000B0FBF1F0B0FBF5F006EB0016FFF766F8C3
:1016B00000EBC00101EB001061688900B0FBF1F79D
:1016C000FFF75CF800EBC00101EB001061688900D6
:1016D000B0FBF1F0B0FBF5F06FF01801484307EBF9
:1016E000800108EB0110B0FBF5F0216800F00F005D
:1016F00030448860BDE8F081003801402DE9F041B8
:10170000984617460E460446069D1DE0681C1BD0F1
:101710002DB1FEF7ADFEA0EB0800A84214D9206859
:10172000C16821F4D071C1602068416921F00101D4
:101730004161202084F8390084F83A00002084F8C0
:1017400038000320BDE8F0812068006836EA000018
:1017500004D00020B842D9D00020F3E70120F9E7F7
:10176000FEE702E008C8121F08C1002AFAD170473C
:101770007047002001E001C1121F002AFBD1704711
:1017800010B5FFF7ABFCBDE810401021014800F098
:10179000BBBA0000860000207047000005490878A9
:1017A000421C0A70262801D3002008700878FFF731
:1017B000BDBD000085000020FEF768FEFFF758FE63
:1017C000FFF70CFDFFF784FDFFF75CFDFFF7CCFC96
:1017D00000F00EF8FEE701460020842900D0C81C66
:1017E000704710B500B9012000F04EFB002010BD7D
:1017F00010B500F0B5FB002010BD3EB504460D4607
:10180000B0F90800FFF7E7FF02A9CDE90001208A3F
:101810002B4682B2D4E9001000F0AEFC012801D0C2
:1018200000203EBD02983EBD2DE9F0411A4C0F4606
:101830000546E6682168002081F851002068001DF7
:1018400000F06CFA38B9206890F82C10012088401C
:10185000216981432161681C07D137B12168BDE846
:10186000F0410E48091D00F091BA20683544B54298
:101870004560216805D2A06BBDE8F041091D00F06C
:101880006DBA606B091D00F069FAA06A854200D24A
:10189000A562BDE8F08100002C000020800300203C
:1018A0002DE9F041054600F07DFA2E4CA068401C61
:1018B000A06020682C4F10B1606940B32DE0256016
:1018C000A068012829D1002606EB860007EB8000DE
:1018D00000F036FA761C072EF6D323488C3000F041
:1018E0002FFA2148A03000F02BFA1F48B43000F046
:1018F00027FA1D48C83000F023FA1B48DC3000F0FE
:101900001FFA19488C3060631430A06305E020682A
:10191000E96AC06A884200D82560606A401C60623B
:10192000E96A0120226988401043206101EB8100AF
:1019300007EB8000291D00F029FA00F053FA6069D6
:1019400000280CD02068E96AC06A884207D207499B
:101950004FF080500860BFF34F8FBFF36F8FBDE82B
:10196000F08100002C000020A402002004ED00E023
:1019700070B5114E114C17E000F026FB3068B8B17D
:1019800000F0C4FC00F00EFAF068C568281D00F0F5
:10199000C5F9A068401EA0606068401E606000F04D
:1019A00021FA284600F00CF860680028E4D170BDE8
:1019B00000F0ACFCF8E700006C0300202C000020D5
:1019C00010B50446006B00F021FA2046BDE8104037
:1019D00000F01CBA10484FF48051420706D0C01DD9
:1019E0000D4920F00700411AC1F580510B4A002330
:1019F0000144C2E900030839103A21F007011160DF
:101A00004B600B600B1AC0E9001393604FF000406D
:101A10005360D060704700009403002078000020DD
:101A2000074C4FF08056074DFFF7A2FF20680128B2
:101A3000FAD92E60BFF34F8FBFF36F8FF4E700002A
:101A4000A402002004ED00E02DE9F0479A46DDE90C
:101A5000098481466FF00303206B03EB820210447C
:101A6000089D20F00706700707D0502080F31188EA
:101A7000BFF34F8FBFF36F8FFEE723180A5C83F825
:101A800034200A5C12B1401C1028F6D3002784F8D9
:101A90004370072D00D30625E562C4E91157201DC8
:101AA00000F059F904F1180000F055F92461C5F16E
:101AB00007006462A061E76484F8507084F8517094
:101AC00052464946304600F0BFF82060B8F1000F9A
:101AD00001D0C8F80040BDE8F087000030B51149DA
:101AE00000E011460A688242FBD34B685C188442CE
:101AF00003D1406818444860084643681C18944263
:101B000009D1084C103C2468A24209D052681A44FA
:101B100042600A6812680260814200D0086030BDED
:101B20000460F9E7780000200648416B096829B194
:101B3000416BC968C9684968816270474FF0FF31DD
:101B4000FAE700002C00002008484068401C4FF0D5
:101B5000500080F3118804D0BFF34F8FBFF36F8F15
:101B6000FEE7BFF34F8FBFF36F8FFEE7200000202B
:101B70002DE9F0410546002700F026FA314E306885
:101B800008B9FFF727FFF06805424BD1C5B3083508
:101B900068070ED005F00700C0F10800054468078B
:101BA00007D0502080F31188BFF34F8FBFF36F8FA2
:101BB000FEE72DB37068854234D8224810300146C4
:101BC0000C6801E020460C466168A94202D22168F7
:101BD0000029F7D131688C4224D007682168016060
:101BE00060680837411B10290FD96019420708D0D7
:101BF000502080F31188BFF34F8FBFF36F8FFEE744
:101C000010E041606560FFF769FF61687068401A25
:101C10007060B268904200D2B060F068014300206A
:101C2000C4E9000100F072FB780707D0502080F370
:101C30001188BFF34F8FBFF36F8FFEE73846BDE8C3
:101C4000F08100006800002010B5031F4FF0807481
:101C50001C601B1F21F001011960191F024B0B6052
:101C6000143940380A6010BD491B00080120FFF7F5
:101C7000B8FDFBE708B54FF4FA7400BF00F024F894
:101C80002146684600F026F9F8E708B50024FFF77A
:101C900077FD4FF4FA75FFF77FFD2046641CA4B270
:101CA000A84204D3012100240846FFF777FD012153
:101CB000684600F00FF9EEE708B54FF47A74214654
:101CC000684600F007F9FAE73EB50C4A0C4C4FF0B5
:101CD000FF3307CA8DE807002078062230308DF8E0
:101CE000040069460748FFF79BF92078411C2170E2
:101CF000092801D3002020703EBD000038240008D0
:101D0000840000200C0200200A4601464FF0FF33F9
:101D10000148FFF785B900000C020020D0E901322C
:101D200001699A60D0E901235A604A68824201D170
:101D300082684A60002202610868401E086070479D
:101D400000F108014FF0FF32C0E90112C1600161EA
:101D500000210160704700210161704730B50B68B8
:101D60005A1C02D000F1080202E0026904E0224697
:101D7000546825689D42FAD953684B6099608A601F
:101D8000516008610168491C016030BD42684A60C9
:101D900093688B6093685960916008610168491C81
:101DA00001607047502080F31188BFF34F8FBFF35D
:101DB0006F8F0A494868401C486001280CD10848C8
:101DC000006810F0FF0F07D0502080F31188BFF398
:101DD0004F8FBFF36F8FFEE7704700002000002099
:101DE00004ED00E00849486828B1401E486001D170
:101DF00080F311887047502080F31188BFF34F8F14
:101E0000BFF36F8FFEE700002000002070B50028B0
:101E100027D0144DA0F108046168E868014207D199
:101E2000502080F31188BFF34F8FBFF36F8FFEE711
:101E300022683AB1502080F31188BFF34F8FBFF36F
:101E40006F8FFEE78143616000F0BEF860686968EB
:101E5000084468602046FFF741FEBDE8704000F08E
:101E600055BA70BD6800002006484FF47A710068CA
:101E7000B0FBF1F14FF0E020491E41610721016103
:101E8000704700008000002010B5020014D00F48F9
:101E9000006B38B1502080F31188BFF34F8FBFF330
:101EA0006F8FFEE700F090F800211046FFF7BCFCB2
:101EB00000F02CFA002807D105494FF08050086047
:101EC000BFF34F8FBFF36F8F10BD00002C000020B9
:101ED00004ED00E070B50D4604000BD095B11E4A2C
:101EE000106BB8B1502080F31188BFF34F8FBFF350
:101EF0006F8FFEE7502080F31188BFF34F8FBFF341
:101F00006F8FFEE7502080F31188BFF34F8FBFF330
:101F10006F8FFEE700F058F8D26823685919934292
:101F200004D98B420AD9914202D807E08B42FAD9F0
:101F3000881A21600021FFF777FC00E0216000F0A3
:101F4000E5F9002807D105494FF080500860BFF33C
:101F50004F8FBFF36F8F70BD2C00002004ED00E0A9
:101F60001CB515480024CDE900402346802213A16A
:101F7000144800F001F9012809D0401C1AD1502062
:101F800080F31188BFF34F8FBFF36F8FFEE75020B0
:101F900080F31188BFF34F8FBFF36F8F06484FF068
:101FA000FF312C38816201214161C460BDE81C40D1
:101FB00000F040B81CBD00005800002049444C45CA
:101FC00000000000211A00080248016B491C01634F
:101FD000704700002C0000201448016B11B1012152
:101FE000C16170470021C1610169B1FA81F1C1F19C
:101FF0001F0101EB81020E4951F822306BB101EB58
:10200000820101F108034A6852684A609A4201D18C
:1020100052684A60D16801607047502080F311888F
:10202000BFF34F8FBFF36F8FFEE700002C0000203F
:10203000A40200201CB5194908780190FF200870FF
:1020400008788DF800009DF80000154A00F0500057
:1020500010700720906005E09DF800305B008DF85F
:102060000030401E9DF800301B06F5D4000200F43D
:10207000E0609060019808700A48016841F47001BE
:102080000160016841F070410160FFF7EDFE002042
:102090005060FEF747F800201CBD000000E400E09F
:1020A0002000002020ED00E070B50E46050013D0A2
:1020B000D6B105FB06F04830FFF75AFD040009D001
:1020C00004F1480120468EB10160C0E90F5601219C
:1020D00000F00EF8204670BD502080F31188BFF349
:1020E0004F8FBFF36F8FFEE70020E4E70060ECE75F
:1020F00070B50D46040025D0FFF754FED4E90F203B
:10210000216802FB001161600021A1632168A160C8
:102110000A46D4E90F01401E00FB0121E16021467F
:102120004FF0FF3001F8440F487004F110008DB1FA
:10213000FFF706FE04F12400FFF702FEFFF752FE50
:10214000012070BD502080F31188BFF34F8FBFF383
:102150006F8FFEE721690029F0D000F09DF800287C
:10216000ECD004494FF080500860BFF34F8FBFF3AD
:102170006F8FE3E704ED00E02DE9FF5F8346DDE9C3
:102180000E87994616468A469000FFF7F1FC050037
:102190001AD05420FFF7ECFC040012D02563002174
:1021A000CDE90241CDE900874B46324651465846BB
:1021B000FFF74AFC2046FFF773FB012004B0BDE89F
:1021C000F09F2846FFF722FE4FF0FF30F6E70000B1
:1021D0002DE9F0412E4C0027206B40B1A069401C36
:1021E000A061E06900B101273846BDE8F081E668EA
:1021F000761CE66013D1606B006838B1502080F324
:102200001188BFF34F8FBFF36F8FFEE7606BA16B39
:102210006163A063206A401C2062FFF785FCA06A0E
:10222000DFF87080864209D3606B006880B1606B14
:10223000C068C568686886420DD2A0622068C06A1E
:1022400000EB800158F821000128CAD90127C8E70E
:102250004FF0FF30F1E7281DFFF760FDA86A18B1C5
:1022600005F11800FFF75AFDE86A01212269814053
:102270001143216100EB800108EB8100291DFFF76C
:1022800085FDE86A2168C96A8842CDD30127CBE77A
:102290002C000020A40200202DE9F041C068C46891
:1022A000ACB104F118000746FFF738FD154D286B57
:1022B0000126A0B139461448FFF768FDE06A296895
:1022C000C96A88421CD90120EE61BDE8F081502026
:1022D00080F31188BFF34F8FBFF36F8FFEE7201D90
:1022E000FFF71CFDE16A2A6906FA01F01043286134
:1022F00001EB81000449B43901EB8000211DDBE7CB
:102300000020E2E72C000020580300202DE9F047D0
:102310002C4D00242746286B38B1FFF743FD286B6E
:10232000401E2863286B40B146E0502080F311889E
:10233000BFF34F8FBFF36F8FFEE7A968224E0120D6
:10234000D1B3A6F1B40980463068E8B1F068C4683A
:1023500004F11800FFF7E2FC201DFFF7DFFCE06A44
:102360002A6908FA00F11143296100EB800109EBA9
:102370008100211DFFF70AFDE06A2968C96A8842C9
:10238000E2D3C5F81C80DFE70CB1FFF7CDFBAC69E9
:1023900044B14646FFF71CFF00B1EE61641EF9D15F
:1023A0000020A861E86938B10849012738070860AA
:1023B000BFF34F8FBFF36F8FFFF714FD3846BDE8B3
:1023C000F08700002C0000205803002004ED00E0FE
:1023D000582400086D1C0008FEFF000000000000EB
:1023E0008000000088240008B91C000800000000DC
:1023F000000000008000000078240008751C000820
:10240000FEFF0000000000008000000068240008BB
:102410008B1C00080100000000000000800000008C
:102420000000000000000000010203040607080984
:1024300000000000010203045469636B200A0000DD
:10244000000009000A0A0B070C010F000000000041
:1024500000000000000000006261636B47726F754E
:102460006E645461736B00006C6564377365674616
:102470006173745461736B006465627567536C6F4C
:10248000775461736B00000073656E736F72536CE9
:102490006F775461736B0000B824000800000020BF
:1024A000CC01000028020008AC250008CC01002067
:1024B000CC150000721700083201021F101AAA0181
:1024C000015924A24A0450114C6564496E6974464E
:1024D000696E69736865640A1B08140122081E1C72
:1024E0000808080C081F3C041820201C1019062995
:1024F000081E10103C14143D1F1C20241C043C0812
:102500001A24082A38181C381020102718242418D8
:1025100024182B04080A213C24243C0829281A24C6
:10252000401B3804011930191019122960190231A1
:102530002D04041C04097D382434043831298819F9
:1025400027111B1C1062311E24140C1424802A3CF9
:102550004819083622222A36221E22322A26220929
:1025600019763970195029604C403834103B2414C6
:10257000103D182420186019575C08083E3039F8BF
:102580001A22012136446C5444442E28281028284D
:10259000D72A102221367C0810207C17183C7E7F19
:0C25A00077232009FFE7C3C18181CBFF36
:04000005080000ED02
:00000001FF
